:020000040000FA
:10000000680400206D02000071020000730200000D
:100010007502000077020000790200000000000075
:100020000000000000000000000000007B02000053
:100030007D020000000000007F020000810200003D
:10004000830200008302000083020000830200009C
:10005000830200008302000083020000830200008C
:10006000830200008302000083020000830200007C
:10007000830200008302000083020000830200006C
:10008000830200008302000083020000830200005C
:10009000830200008302000083020000830200004C
:1000A000830200008302000083020000830200003C
:1000B000830200008302000083020000830200002C
:1000C000830200008302000083020000830200001C
:1000D000830200008302000083020000830200000C
:1000E00083020000830200008302000083020000FC
:1000F00083020000830200008302000083020000EC
:1001000083020000830200008302000083020000DB
:1001100083020000830200008302000083020000CB
:1001200083020000830200008302000083020000BB
:1001300083020000830200008302000083020000AB
:1001400000000000000000000000000000000000AF
:10015000830200008302000083020000830200008B
:10016000000000000000000000000000000000008F
:10017000000000000000000000000000000000007F
:10018000000000000000000000000000000000006F
:10019000000000000000000000000000000000005F
:1001A000000000000000000000000000000000004F
:1001B000830200008302000083020000830200002B
:1001C000830200008302000083020000830200001B
:1001D000830200008302000083020000830200000B
:1001E00083020000830200008302000083020000FB
:1001F00083020000830200008302000083020000EB
:10020000830200008302000083020000000000005F
:1002100083020000830200008302000083020000CA
:1002200083020000830200008302000083020000BA
:1002300083020000830200008302000083020000AA
:10024000830200008302000083020000830200009A
:10025000830200008302000083020000830200008A
:1002600083020000830200008302000000F00AB84D
:10027000FEE7FEE7FEE7FEE7FEE7FEE7FEE7FEE756
:10028000FEE7FEE700F002F800F03AF80AA090E876
:10029000000C82448344AAF10107DA4501D100F041
:1002A0002FF8AFF2090EBAE80F0013F0010F18BFD4
:1002B000FB1A43F001031847BC060000DC060000EF
:1002C000103A24BF78C878C1FAD8520724BF30C882
:1002D00030C144BF04680C60704700000023002454
:1002E00000250026103A28BF78C1FBD8520728BF46
:1002F00030C148BF0B6070471FB51FBD10B510BDA2
:1003000000F029F81146FFF7F7FF00F0EBFA00F0D4
:1003100047F803B4FFF7F2FF03BC00F04FF800000A
:1003200072B6704762B67047EFF3108072B67047CE
:1003300080F31088704730BF704702480249014A75
:10034000024B70476800002068040020680000200D
:10035000704770477047754600F02CF8AE460500B0
:100360006946534620F00700854618B020B5FFF7D0
:10037000E4FFBDE820404FF000064FF000074FF0CB
:1003800000084FF0000BAC46ACE8C009ACE8C0096F
:10039000ACE8C009ACE8C00921F007018D46704700
:1003A00010B50446AFF300802046BDE81040FFF7CB
:1003B000B0BF000000487047080000200149182025
:1003C000ABBEFEE726000200704700004EF20811A7
:1003D000C4F20F01086840F004000860FFE74EF225
:1003E0000810C4F20F00006800F00400042801D0D7
:1003F000FFE7F4E746F22451C4F20001086840F038
:10040000F000086046F22851C4F20001086820F0AC
:10041000F000086046F22C51C4F20001086880B276
:10042000086046F20041C4F20001086840F0F000A4
:10043000086046F22041C4F20001086820F0F00094
:10044000086046F21051C4F20001086820F0F00084
:10045000086046F21C51C4F20001086840F0F00048
:100460000860704746F2C031C4F2000140200860C5
:1004700045F23801C4F202010A200860704700000A
:1004800046F2C031C4F20001A020086045F23801F4
:10049000C4F20201042008607047000046F2C03137
:1004A000C4F200011020086045F23801C4F20201D4
:1004B000062008607047000046F2C031C4F2000117
:1004C0000020086045F23801C4F20201086070475C
:1004D00046F2C031C4F200015020086045F23801F4
:1004E000C4F20201082008607047000081B0ADF836
:1004F0000200ADF80010BDF8000048F25801C4F247
:1005000002010860BDF8020048F25C01C4F2020179
:10051000086001B0704700004EF20811C4F20F01EC
:10052000086840F020000860FFE74EF20810C4F2AF
:100530000F00006800F02000202801D0FFE7F4E75A
:1005400045F22451C4F20201086840F00E00086030
:1005500045F22851C4F20201086820F00E0008603C
:1005600045F22C51C4F2020108684FF6F072904334
:10057000086045F20041C4F20201086840F00E0034
:10058000086045F22041C4F20201086820F00E0024
:10059000086045F21051C4F20201086820F00E0014
:1005A000086045F21C51C4F20201086840F00E00D8
:1005B0000860704780B540F20000C2F20000017888
:1005C00001390170007838B9FFE740F20001C2F24A
:1005D000000100200870FFE740F20000C2F20000B6
:1005E000017840F65C10C0F2000030F811100846A7
:1005F000FFF77CFF80BD000080B540F20000C2F232
:10060000000001780131017000780B2807DBFFE75B
:1006100040F20001C2F200010A200870FFE740F238
:100620000000C2F20000017840F65C10C0F2000049
:1006300030F811100846FFF759FF80BD40F65C10F6
:10064000C0F20000418948F25802C4F2020211606F
:10065000408948F25C01C4F20201086048F20801D6
:10066000C4F20201086840F003000860704700000F
:100670004EF20411C4F20F01086840F00100086056
:100680004EF20811C4F20F01086840F00100086042
:100690004CF23001C4F20001002008604CF2240248
:1006A000C4F20002082010604CF22802C4F20002DA
:1006B0002C2010604CF22C02C4F20002702010605A
:1006C000086840F201321043086044F22041C4F24D
:1006D0000001086840F00300086044F21C51C4F2B5
:1006E0000001086840F00300086044F22C51C4F295
:1006F00000010868112262F30700086044F22851E3
:10070000C4F20001086820F0030008607047000090
:10071000FFE74DF21800C4F200000068C006002890
:1007200001D5FFE7F5E74DF20000C4F200000068D4
:10073000C0B270474EF20411C4F20F01086840F0D5
:10074000020008604EF20811C4F20F01086840F080
:1007500002000860FFE74EF20810C4F20F000068C4
:100760008007002801D4FFE7F5E74DF23001C4F21D
:100770000001002008604DF22400C4F200001122A4
:1007800002604DF22803C4F20003172018604DF2F6
:100790002C03C4F2000370201860086840F2013393
:1007A0001843086045F22041C4F20001086840F097
:1007B0000300086045F21C51C4F20001086840F0D3
:1007C0000300086045F22C51C4F20001086862F38E
:1007D0000700086045F22851C4F20001086820F0C3
:1007E00003000860704700004EF20811C4F20F01C8
:1007F000086840F002000860FFE74EF20810C4F2FB
:100800000F00006800F00200022801D0FFE7F4E7C3
:1008100045F22041C4F20001086840F0C0000860C1
:1008200045F22C51C4F20001086820F07F400860B6
:10083000086840F08840086045F21C51C4F200018D
:10084000086840F0C00008604EF24061C4F20F0139
:1008500001200860FFE74EF24060C4F20F0000681C
:10086000C00708B9FFE7F6E74EF26001C4F20F01D6
:10087000086820F4F010086048F24001C4F2020158
:100880000020086048F26003C4F202031A6842F0D4
:10089000C8021A6048F26403C4F202031A6840F600
:1008A000084C42EA0C021A6048F25003C4F20203F8
:1008B00043F67F621A6048F25802C4F202021060E6
:1008C00048F25C02C4F202021060086840F00100C5
:1008D000086048F20801C4F20201086820F0030031
:1008E0000860704780B582B000200190FFF714FEC9
:1008F000FFF76CFDFFF778FFFFF7BAFEFFF71AFF6F
:10090000FFF79CFEFFE7FFF703FF42380146009127
:10091000132821D80099DFE801F00D1F1C1F0A1FC2
:100920001F1F1F1F101F1F1F1F1F13161F19FFF749
:10093000CFFD12E0FFF7A4FD0FE0FFF793FD0CE001
:10094000FFF7ACFD09E0FFF7B7FD06E0FFF754FE47
:1009500003E0FFF72FFE00E0FFE7D4E700003F06CB
:100960007F0CBF12FF183F1F7F25BF2BFF313F3881
:100970007E3E0000940900000000002004000000FA
:10098000C002000098090000080000206004000078
:08099000DC020000050000007C
:040000050000026D88
:00000001FF
