:020000040000FA
:10000000600400206D020000710200007302000015
:100010007502000077020000790200000000000075
:100020000000000000000000000000007B02000053
:100030007D020000000000007F020000810200003D
:10004000830200008302000083020000830200009C
:10005000830200008302000083020000830200008C
:10006000830200008302000083020000830200007C
:10007000830200008302000083020000830200006C
:10008000830200008302000083020000830200005C
:10009000830200008302000083020000830200004C
:1000A000830200008302000083020000830200003C
:1000B000830200008302000083020000830200002C
:1000C000830200008302000083020000830200001C
:1000D000830200008302000083020000830200000C
:1000E00083020000830200008302000083020000FC
:1000F00083020000830200008302000083020000EC
:1001000083020000830200008302000083020000DB
:1001100083020000830200008302000083020000CB
:1001200083020000830200008302000083020000BB
:1001300083020000830200008302000083020000AB
:1001400000000000000000000000000000000000AF
:10015000830200008302000083020000830200008B
:10016000000000000000000000000000000000008F
:10017000000000000000000000000000000000007F
:10018000000000000000000000000000000000006F
:10019000000000000000000000000000000000005F
:1001A000000000000000000000000000000000004F
:1001B000830200008302000083020000830200002B
:1001C000830200008302000083020000830200001B
:1001D000830200008302000083020000830200000B
:1001E00083020000830200008302000083020000FB
:1001F00083020000830200008302000083020000EB
:10020000830200008302000083020000000000005F
:1002100083020000830200008302000083020000CA
:1002200083020000830200008302000083020000BA
:1002300083020000830200008302000083020000AA
:10024000830200008302000083020000830200009A
:10025000830200008302000083020000830200008A
:1002600083020000830200008302000000F00AB84D
:10027000FEE7FEE7FEE7FEE7FEE7FEE7FEE7FEE756
:10028000FEE7FEE700F002F800F02CF80AA090E884
:10029000000C82448344AAF10107DA4501D100F041
:1002A00021F8AFF2090EBAE80F0013F0010F18BFE2
:1002B000FB1A43F001031847B4030000C403000015
:1002C0000023002400250026103A28BF78C1FBD85F
:1002D000520728BF30C148BF0B6070471FB51FBD14
:1002E00010B510BD00F029F81146FFF7F7FF00F038
:1002F00053F900F047F803B4FFF7F2FF03BC00F036
:100300004FF8000072B6704762B67047EFF3108086
:1003100072B6704780F31088704730BF704702484C
:100320000249014A024B704760000020600400202F
:1003300060000020704770477047754600F02CF849
:10034000AE4605006946534620F00700854618B0C2
:1003500020B5FFF7E4FFBDE820404FF000064FF066
:1003600000074FF000084FF0000B21F00701AC46EA
:10037000ACE8C009ACE8C009ACE8C009ACE8C00909
:100380008D46704710B50446AFF300802046BDE8A7
:100390001040FFF7B0BF0000004870470000002089
:1003A00001491820ABBEFEE726000200704700009E
:1003B00008B51C48006840F020001B49C1F808013E
:1003C000184800680090194819490860081D00681D
:1003D00040F00E00091D0860081D006820F00E00A6
:1003E000091D0860081D00684FF6F0718843104928
:1003F0000C3108600F48006840F00E000D4908609D
:100400000C482030006820F00E000A4920310860B6
:100410000748001F006840F00E000549091F0860EA
:1004200008BD000008E10F4000E00F404B434F4C77
:10043000205502400054024000BF0449896901F080
:1004400020010029F9D101490860704700C000402F
:1004500000B5024603E01078FFF7EEFF521C10785B
:100460000028F8D100BD000000BF0548806900F0F9
:1004700010000028F9D102480068C0B2704700009F
:1004800000D000403C48006840F002003B49C1F801
:1004900004010846D0F8080140F00200C1F8080144
:1004A0000846D0F8040140F00100C1F804010846F4
:1004B000D0F8080140F00100C1F808013048006B95
:1004C00020F001002E49086311204862172088623D
:1004D0007020C8620846006B40F201310843284989
:1004E00008632848006840F0030026490860254852
:1004F000FC30006840F003002249FC3108602248CB
:10050000006820F0FF0011301F490860081F0068D4
:1005100020F00300091F08601C48006B20F0010058
:100520001A49086311204862172088627020C86247
:100530000846006B40F2013108431449086314482F
:10054000006840F00300124908601148FC30006860
:1005500040F003000E49FC3108600E48006820F0AE
:10056000FF0011300B490860081F006820F00300ED
:10057000091F08607047000004E10F4000E00F40D1
:1005800000C00040204400402C45004000D0004006
:10059000205400402C550040FFF774FFFFF708FF80
:1005A00024A0FFF755FF44E0FFF75EFF0446204616
:1005B000FFF742FF622C22D00EDC522C19D006DC51
:1005C000422C1BD0472C1ED0502C30D12AE0572C67
:1005D00023D0592C2BD11BE0722C0BD004DC672CC0
:1005E00012D0702C23D11EE0772C17D0792C1ED17D
:1005F0000FE000BF02201C49086019E000BF042082
:100600001949086014E000BF0820174908600FE08E
:1006100000BF0A20144908600AE000BF0E201249FA
:10062000086005E000BF06200F49086000E000BF39
:1006300000BFB9E73E3E3E2057656C636F6D652095
:10064000746F20426C7565746F6F746820436F6EB1
:1006500074726F6C6C6564204C454420417070204E
:100660003C3C3C0A0D000000FC5302407C060000AC
:0C0670000000002060040000C002000038
:040000050000026D88
:00000001FF
